{
  "abi": [
    {
      "type": "constructor",
      "inputs": [],
      "stateMutability": "nonpayable"
    },
    {
      "type": "function",
      "name": "DEFAULT_FEE_BPS",
      "inputs": [],
      "outputs": [
        {
          "name": "",
          "type": "uint16",
          "internalType": "uint16"
        }
      ],
      "stateMutability": "view"
    },
    {
      "type": "function",
      "name": "MAX_FEE_BPS",
      "inputs": [],
      "outputs": [
        {
          "name": "",
          "type": "uint16",
          "internalType": "uint16"
        }
      ],
      "stateMutability": "view"
    },
    {
      "type": "function",
      "name": "UPGRADE_INTERFACE_VERSION",
      "inputs": [],
      "outputs": [
        {
          "name": "",
          "type": "string",
          "internalType": "string"
        }
      ],
      "stateMutability": "view"
    },
    {
      "type": "function",
      "name": "addSupportedNftContract",
      "inputs": [
        {
          "name": "nftContract",
          "type": "address",
          "internalType": "address"
        }
      ],
      "outputs": [],
      "stateMutability": "nonpayable"
    },
    {
      "type": "function",
      "name": "contracts",
      "inputs": [],
      "outputs": [
        {
          "name": "marketplace",
          "type": "address",
          "internalType": "address"
        },
        {
          "name": "escrow",
          "type": "address",
          "internalType": "address"
        }
      ],
      "stateMutability": "view"
    },
    {
      "type": "function",
      "name": "getContractAddresses",
      "inputs": [],
      "outputs": [
        {
          "name": "marketplace",
          "type": "address",
          "internalType": "address"
        },
        {
          "name": "escrow",
          "type": "address",
          "internalType": "address"
        }
      ],
      "stateMutability": "view"
    },
    {
      "type": "function",
      "name": "getFeeConfig",
      "inputs": [],
      "outputs": [
        {
          "name": "feeBps",
          "type": "uint16",
          "internalType": "uint16"
        },
        {
          "name": "recipient",
          "type": "address",
          "internalType": "address"
        }
      ],
      "stateMutability": "view"
    },
    {
      "type": "function",
      "name": "getVerificationServer",
      "inputs": [],
      "outputs": [
        {
          "name": "",
          "type": "address",
          "internalType": "address"
        }
      ],
      "stateMutability": "view"
    },
    {
      "type": "function",
      "name": "initialize",
      "inputs": [
        {
          "name": "_marketplace",
          "type": "address",
          "internalType": "address"
        },
        {
          "name": "_escrow",
          "type": "address",
          "internalType": "address"
        },
        {
          "name": "_feeRecipient",
          "type": "address",
          "internalType": "address"
        },
        {
          "name": "_verificationServer",
          "type": "address",
          "internalType": "address"
        }
      ],
      "outputs": [],
      "stateMutability": "nonpayable"
    },
    {
      "type": "function",
      "name": "isSupportedNftContract",
      "inputs": [
        {
          "name": "nftContract",
          "type": "address",
          "internalType": "address"
        }
      ],
      "outputs": [
        {
          "name": "",
          "type": "bool",
          "internalType": "bool"
        }
      ],
      "stateMutability": "view"
    },
    {
      "type": "function",
      "name": "owner",
      "inputs": [],
      "outputs": [
        {
          "name": "",
          "type": "address",
          "internalType": "address"
        }
      ],
      "stateMutability": "view"
    },
    {
      "type": "function",
      "name": "proxiableUUID",
      "inputs": [],
      "outputs": [
        {
          "name": "",
          "type": "bytes32",
          "internalType": "bytes32"
        }
      ],
      "stateMutability": "view"
    },
    {
      "type": "function",
      "name": "removeSupportedNftContract",
      "inputs": [
        {
          "name": "nftContract",
          "type": "address",
          "internalType": "address"
        }
      ],
      "outputs": [],
      "stateMutability": "nonpayable"
    },
    {
      "type": "function",
      "name": "renounceOwnership",
      "inputs": [],
      "outputs": [],
      "stateMutability": "nonpayable"
    },
    {
      "type": "function",
      "name": "setEscrow",
      "inputs": [
        {
          "name": "newEscrow",
          "type": "address",
          "internalType": "address"
        }
      ],
      "outputs": [],
      "stateMutability": "nonpayable"
    },
    {
      "type": "function",
      "name": "setFeeRecipient",
      "inputs": [
        {
          "name": "newRecipient",
          "type": "address",
          "internalType": "address"
        }
      ],
      "outputs": [],
      "stateMutability": "nonpayable"
    },
    {
      "type": "function",
      "name": "setMarketplace",
      "inputs": [
        {
          "name": "newMarketplace",
          "type": "address",
          "internalType": "address"
        }
      ],
      "outputs": [],
      "stateMutability": "nonpayable"
    },
    {
      "type": "function",
      "name": "setPlatformFee",
      "inputs": [
        {
          "name": "newFee",
          "type": "uint16",
          "internalType": "uint16"
        }
      ],
      "outputs": [],
      "stateMutability": "nonpayable"
    },
    {
      "type": "function",
      "name": "setVerificationServer",
      "inputs": [
        {
          "name": "newServer",
          "type": "address",
          "internalType": "address"
        }
      ],
      "outputs": [],
      "stateMutability": "nonpayable"
    },
    {
      "type": "function",
      "name": "supportedNftContracts",
      "inputs": [
        {
          "name": "",
          "type": "address",
          "internalType": "address"
        }
      ],
      "outputs": [
        {
          "name": "",
          "type": "bool",
          "internalType": "bool"
        }
      ],
      "stateMutability": "view"
    },
    {
      "type": "function",
      "name": "transferOwnership",
      "inputs": [
        {
          "name": "newOwner",
          "type": "address",
          "internalType": "address"
        }
      ],
      "outputs": [],
      "stateMutability": "nonpayable"
    },
    {
      "type": "function",
      "name": "upgradeToAndCall",
      "inputs": [
        {
          "name": "newImplementation",
          "type": "address",
          "internalType": "address"
        },
        {
          "name": "data",
          "type": "bytes",
          "internalType": "bytes"
        }
      ],
      "outputs": [],
      "stateMutability": "payable"
    },
    {
      "type": "function",
      "name": "verificationServer",
      "inputs": [],
      "outputs": [
        {
          "name": "",
          "type": "address",
          "internalType": "address"
        }
      ],
      "stateMutability": "view"
    },
    {
      "type": "event",
      "name": "EscrowUpdated",
      "inputs": [
        {
          "name": "newEscrow",
          "type": "address",
          "indexed": false,
          "internalType": "address"
        }
      ],
      "anonymous": false
    },
    {
      "type": "event",
      "name": "FeeRecipientUpdated",
      "inputs": [
        {
          "name": "newRecipient",
          "type": "address",
          "indexed": false,
          "internalType": "address"
        }
      ],
      "anonymous": false
    },
    {
      "type": "event",
      "name": "Initialized",
      "inputs": [
        {
          "name": "version",
          "type": "uint64",
          "indexed": false,
          "internalType": "uint64"
        }
      ],
      "anonymous": false
    },
    {
      "type": "event",
      "name": "MarketplaceUpdated",
      "inputs": [
        {
          "name": "newMarketplace",
          "type": "address",
          "indexed": false,
          "internalType": "address"
        }
      ],
      "anonymous": false
    },
    {
      "type": "event",
      "name": "OwnershipTransferred",
      "inputs": [
        {
          "name": "previousOwner",
          "type": "address",
          "indexed": true,
          "internalType": "address"
        },
        {
          "name": "newOwner",
          "type": "address",
          "indexed": true,
          "internalType": "address"
        }
      ],
      "anonymous": false
    },
    {
      "type": "event",
      "name": "PlatformFeeUpdated",
      "inputs": [
        {
          "name": "oldFee",
          "type": "uint16",
          "indexed": false,
          "internalType": "uint16"
        },
        {
          "name": "newFee",
          "type": "uint16",
          "indexed": false,
          "internalType": "uint16"
        }
      ],
      "anonymous": false
    },
    {
      "type": "event",
      "name": "SupportedNFTContractAdded",
      "inputs": [
        {
          "name": "nftContract",
          "type": "address",
          "indexed": true,
          "internalType": "address"
        }
      ],
      "anonymous": false
    },
    {
      "type": "event",
      "name": "SupportedNFTContractRemoved",
      "inputs": [
        {
          "name": "nftContract",
          "type": "address",
          "indexed": true,
          "internalType": "address"
        }
      ],
      "anonymous": false
    },
    {
      "type": "event",
      "name": "Upgraded",
      "inputs": [
        {
          "name": "implementation",
          "type": "address",
          "indexed": true,
          "internalType": "address"
        }
      ],
      "anonymous": false
    },
    {
      "type": "event",
      "name": "VerificationServerUpdated",
      "inputs": [
        {
          "name": "newServer",
          "type": "address",
          "indexed": false,
          "internalType": "address"
        }
      ],
      "anonymous": false
    },
    {
      "type": "error",
      "name": "AddressEmptyCode",
      "inputs": [
        {
          "name": "target",
          "type": "address",
          "internalType": "address"
        }
      ]
    },
    {
      "type": "error",
      "name": "ERC1967InvalidImplementation",
      "inputs": [
        {
          "name": "implementation",
          "type": "address",
          "internalType": "address"
        }
      ]
    },
    {
      "type": "error",
      "name": "ERC1967NonPayable",
      "inputs": []
    },
    {
      "type": "error",
      "name": "FailedCall",
      "inputs": []
    },
    {
      "type": "error",
      "name": "InvalidInitialization",
      "inputs": []
    },
    {
      "type": "error",
      "name": "NotInitializing",
      "inputs": []
    },
    {
      "type": "error",
      "name": "OwnableInvalidOwner",
      "inputs": [
        {
          "name": "owner",
          "type": "address",
          "internalType": "address"
        }
      ]
    },
    {
      "type": "error",
      "name": "OwnableUnauthorizedAccount",
      "inputs": [
        {
          "name": "account",
          "type": "address",
          "internalType": "address"
        }
      ]
    },
    {
      "type": "error",
      "name": "UUPSUnauthorizedCallContext",
      "inputs": []
    },
    {
      "type": "error",
      "name": "UUPSUnsupportedProxiableUUID",
      "inputs": [
        {
          "name": "slot",
          "type": "bytes32",
          "internalType": "bytes32"
        }
      ]
    },
    {
      "type": "error",
      "name": "VertixGovernance__InvalidFee",
      "inputs": []
    },
    {
      "type": "error",
      "name": "VertixGovernance__InvalidNFTContract",
      "inputs": []
    },
    {
      "type": "error",
      "name": "VertixGovernance__SameValue",
      "inputs": []
    },
    {
      "type": "error",
      "name": "VertixGovernance__ZeroAddress",
      "inputs": []
    }
  ],
  "bytecode": {
    "object": "0x60a06040523461003e5761001161004d565b610019610043565b6121fb6102c88239608051818181611a8001528181611ae50152611ca601526121fb90f35b610049565b60405190565b5f80fd5b6100556100a1565b61005d61019e565b565b60018060a01b031690565b90565b61008161007c6100869261005f565b61006a565b61005f565b90565b6100929061006d565b90565b61009e90610089565b90565b6100aa30610095565b608052565b60401c90565b60ff1690565b6100c76100cc916100af565b6100b5565b90565b6100d990546100bb565b90565b5f0190565b5f1c90565b60018060401b031690565b6100fd610102916100e1565b6100e6565b90565b61010f90546100f1565b90565b60018060401b031690565b5f1b90565b9061013360018060401b039161011d565b9181191691161790565b61015161014c61015692610112565b61006a565b610112565b90565b90565b9061017161016c6101789261013d565b610159565b8254610122565b9055565b61018590610112565b9052565b919061019c905f6020850194019061017c565b565b6101a6610256565b6101b15f82016100cf565b61023a576101c05f8201610105565b6101d86101d260018060401b03610112565b91610112565b036101e1575b50565b6101f4905f60018060401b03910161015c565b60018060401b036102317fc7f505b2f371ae2175ee4913f4499e1f2633a7b5936321eed1cdaeb6115181d291610228610043565b91829182610189565b0390a15f6101de565b5f63f92ee8a960e01b815280610252600482016100dc565b0390fd5b61025e6102b3565b90565b5f90565b90565b90565b61027f61027a61028492610265565b61011d565b610268565b90565b6102b07ff0c57e16840df040f15088dc2f81fe391c3923bec73e23a9662efc9c229c6a0061026b565b90565b6102bb610261565b506102c4610287565b9056fe60806040526004361015610013575b610bd3565b61001d5f3561018c565b806308d6eff61461018757806333d8262c14610182578063347eaf261461017d5780634f1ef2861461017857806352d1902d146101735780635cbc742c1461016e5780635fbbc0d2146101695780636c0f79b6146101645780636fd171891461015f578063715018a61461015a57806373ad6c2d1461015557806381b78a00146101505780638da5cb5b1461014b578063953874d2146101465780639c6870de14610141578063ad3cb1cc1461013c578063bf9879dd14610137578063c10c354614610132578063d55be8c61461012d578063e74b981b14610128578063f2fde38b14610123578063f398d5591461011e5763f8c8765e0361000e57610b9c565b610b21565b610aee565b610abb565b610a86565b610a1b565b6109e8565b6109b3565b610884565b61084e565b610819565b6107e4565b6107b1565b61077e565b61074b565b610715565b610679565b610623565b6105ad565b61055e565b6103f4565b6102c4565b61022c565b60e01c90565b60405190565b5f80fd5b5f80fd5b5f9103126101aa57565b61019c565b1c90565b60018060a01b031690565b6101ce9060086101d393026101af565b6101b3565b90565b906101e191546101be565b90565b6101f060035f906101d6565b90565b60018060a01b031690565b610207906101f3565b90565b610213906101fe565b9052565b919061022a905f6020850194019061020a565b565b3461025c5761023c3660046101a0565b6102586102476101e4565b61024f610192565b91829182610217565b0390f35b610198565b90565b61ffff1690565b90565b61028261027d61028792610261565b61026b565b610264565b90565b610294606461026e565b90565b61029f61028a565b90565b6102ab90610264565b9052565b91906102c2905f602085019401906102a2565b565b346102f4576102d43660046101a0565b6102f06102df610297565b6102e7610192565b918291826102af565b0390f35b610198565b5f80fd5b610306816101fe565b0361030d57565b5f80fd5b9050359061031e826102fd565b565b9060208282031261033957610336915f01610311565b90565b61019c565b61035261034d610357926101f3565b61026b565b6101f3565b90565b6103639061033e565b90565b61036f9061035a565b90565b9061037c90610366565b5f5260205260405f2090565b60ff1690565b61039e9060086103a393026101af565b610388565b90565b906103b1915461038e565b90565b6103ca906103c56004915f92610372565b6103a6565b90565b151590565b6103db906103cd565b9052565b91906103f2905f602085019401906103d2565b565b346104245761042061040f61040a366004610320565b6103b4565b610417610192565b918291826103df565b0390f35b610198565b5f80fd5b5f80fd5b601f801991011690565b634e487b7160e01b5f52604160045260245ffd5b9061045990610431565b810190811067ffffffffffffffff82111761047357604052565b61043b565b9061048b610484610192565b928361044f565b565b67ffffffffffffffff81116104ab576104a7602091610431565b0190565b61043b565b90825f939282370152565b909291926104d06104cb8261048d565b610478565b938185526020850190828401116104ec576104ea926104b0565b565b61042d565b9080601f8301121561050f5781602061050c933591016104bb565b90565b610429565b9190916040818403126105545761052d835f8301610311565b92602082013567ffffffffffffffff811161054f5761054c92016104f1565b90565b6102f9565b61019c565b5f0190565b61057261056c366004610514565b90610c00565b61057a610192565b8061058481610559565b0390f35b90565b61059490610588565b9052565b91906105ab905f6020850194019061058b565b565b346105dd576105bd3660046101a0565b6105d96105c8610c80565b6105d0610192565b91829182610598565b0390f35b610198565b6105eb81610264565b036105f257565b5f80fd5b90503590610603826105e2565b565b9060208282031261061e5761061b915f016105f6565b90565b61019c565b346106515761063b610636366004610605565b610e13565b610643610192565b8061064d81610559565b0390f35b610198565b91602061067792949361067060408201965f8301906102a2565b019061020a565b565b346106aa576106893660046101a0565b610691610e4d565b906106a661069d610192565b92839283610656565b0390f35b610198565b5f1c90565b6106c06106c5916106af565b6101b3565b90565b6106d290546106b4565b90565b6001906106ef60016106e85f85016106c8565b93016106c8565b90565b91602061071392949361070c60408201965f83019061020a565b019061020a565b565b34610746576107253660046101a0565b61072d6106d5565b90610742610739610192565b928392836106f2565b0390f35b610198565b346107795761076361075e366004610320565b610fb4565b61076b610192565b8061077581610559565b0390f35b610198565b346107ac5761078e3660046101a0565b610796610fe4565b61079e610192565b806107a881610559565b0390f35b610198565b346107df576107c96107c4366004610320565b6110c4565b6107d1610192565b806107db81610559565b0390f35b610198565b34610814576107f43660046101a0565b6108106107ff6110cf565b610807610192565b91829182610217565b0390f35b610198565b34610849576108293660046101a0565b6108456108346110e5565b61083c610192565b91829182610217565b0390f35b610198565b3461087f5761085e3660046101a0565b610866611103565b9061087b610872610192565b928392836106f2565b0390f35b610198565b346108b25761089c610897366004610320565b61123e565b6108a4610192565b806108ae81610559565b0390f35b610198565b67ffffffffffffffff81116108d5576108d1602091610431565b0190565b61043b565b906108ec6108e7836108b7565b610478565b918252565b5f7f352e302e30000000000000000000000000000000000000000000000000000000910152565b61092260056108da565b9061092f602083016108f1565b565b610939610918565b90565b610944610931565b90565b61094f61093c565b90565b5190565b60209181520190565b90825f9392825e0152565b6109896109926020936109979361098081610952565b93848093610956565b9586910161095f565b610431565b0190565b6109b09160208201915f81840391015261096a565b90565b346109e3576109c33660046101a0565b6109df6109ce610947565b6109d6610192565b9182918261099b565b0390f35b610198565b34610a1657610a006109fb366004610320565b6112f0565b610a08610192565b80610a1281610559565b0390f35b610198565b34610a4957610a33610a2e366004610320565b6113d1565b610a3b610192565b80610a4581610559565b0390f35b610198565b90565b610a65610a60610a6a92610a4e565b61026b565b610264565b90565b610a786103e8610a51565b90565b610a83610a6d565b90565b34610ab657610a963660046101a0565b610ab2610aa1610a7b565b610aa9610192565b918291826102af565b0390f35b610198565b34610ae957610ad3610ace366004610320565b6114f4565b610adb610192565b80610ae581610559565b0390f35b610198565b34610b1c57610b06610b01366004610320565b611564565b610b0e610192565b80610b1881610559565b0390f35b610198565b34610b5157610b4d610b3c610b37366004610320565b611573565b610b44610192565b918291826103df565b0390f35b610198565b608081830312610b9757610b6c825f8301610311565b92610b94610b7d8460208501610311565b93610b8b8160408601610311565b93606001610311565b90565b61019c565b34610bce57610bb8610baf366004610b56565b92919091611a55565b610bc0610192565b80610bca81610559565b0390f35b610198565b5f80fd5b90610be991610be4611a6f565b610beb565b565b90610bfe91610bf981611b21565b611b97565b565b90610c0a91610bd7565b565b5f90565b610c2190610c1c611c95565b610c74565b90565b90565b5f1b90565b610c40610c3b610c4592610c24565b610c27565b610588565b90565b610c717f360894a13ba1a3210667c828492db98dca3e2076cc3735a920a3ca505d382bbc610c2c565b90565b50610c7d610c48565b90565b610c90610c8b610c0c565b610c10565b90565b610ca490610c9f611cf3565b610d47565b565b61ffff1690565b610cb9610cbe916106af565b610ca6565b90565b610ccb9054610cad565b90565b90610cdb61ffff91610c27565b9181191691161790565b610cf9610cf4610cfe92610264565b61026b565b610264565b90565b90565b90610d19610d14610d2092610ce5565b610d01565b8254610cce565b9055565b916020610d45929493610d3e60408201965f8301906102a2565b01906102a2565b565b80610d61610d5b610d56610a6d565b610264565b91610264565b11610df75780610d83610d7d610d785f8001610cc1565b610264565b91610264565b14610ddb57610d935f8001610cc1565b610d9f825f8001610d04565b907f84e4fe32bf74c4011a7e1fde79c63acdffaf92a0112cde153e7b0abee665bc6b91610dd6610dcd610192565b92839283610d24565b0390a1565b5f631cea5a8b60e11b815280610df360048201610559565b0390fd5b5f6307d7037360e51b815280610e0f60048201610559565b0390fd5b610e1c90610c93565b565b5f90565b5f90565b60101c90565b610e38610e3d91610e26565b6101b3565b90565b610e4a9054610e2c565b90565b610e55610e1e565b50610e5e610e22565b50610e6a5f8001610cc1565b90610e765f8001610e40565b90565b610e8a90610e85611cf3565b610ef5565b565b90565b610ea3610e9e610ea892610e8c565b61026b565b6101f3565b90565b610eb490610e8f565b90565b90610ec860018060a01b0391610c27565b9181191691161790565b90565b90610eea610ee5610ef192610366565b610ed2565b8254610eb7565b9055565b80610f10610f0a610f055f610eab565b6101fe565b916101fe565b14610f985780610f31610f2b610f2660036106c8565b6101fe565b916101fe565b14610f7c57610f41816003610ed5565b610f777f2084c4a382a5ac910f592e848562b77140c3c8d87b1f6568dc4632b93b44ac2591610f6e610192565b91829182610217565b0390a1565b5f631cea5a8b60e11b815280610f9460048201610559565b0390fd5b5f632080cc0360e01b815280610fb060048201610559565b0390fd5b610fbd90610e79565b565b610fc7611cf3565b610fcf610fd1565b565b610fe2610fdd5f610eab565b611d41565b565b610fec610fbf565b565b610fff90610ffa611cf3565b611001565b565b8061101c6110166110115f610eab565b6101fe565b916101fe565b146110a8578061103f6110396110345f6001016106c8565b6101fe565b916101fe565b1461108c57611051815f600101610ed5565b6110877f210690abd7fd6cdbb8f2beb202b2a253d58d7a0813b2175c4172c14c0c1af6dc9161107e610192565b91829182610217565b0390a1565b5f631cea5a8b60e11b8152806110a460048201610559565b0390fd5b5f632080cc0360e01b8152806110c060048201610559565b0390fd5b6110cd90610fee565b565b6110d7610e22565b506110e260036106c8565b90565b6110ed610e22565b506111005f6110fa611dad565b016106c8565b90565b61110b610e22565b50611114610e22565b506111215f6001016106c8565b9061112e600180016106c8565b90565b6111429061113d611cf3565b6111aa565b565b611150611155916106af565b610388565b90565b6111629054611144565b90565b9061117160ff91610c27565b9181191691161790565b611184906103cd565b90565b90565b9061119f61119a6111a69261117b565b611187565b8254611165565b9055565b6111c76111c16111bc60048490610372565b611158565b156103cd565b611222576111e05f6111db60048490610372565b61118a565b61120a7fc9690fd460005566bdf5a8109cc01a0cb4425ea52210e2838e6ff9c5e58021dc91610366565b90611213610192565b8061121d81610559565b0390a2565b5f635b87152560e01b81528061123a60048201610559565b0390fd5b61124790611131565b565b61125a90611255611cf3565b61125c565b565b8061127761127161126c5f610eab565b6101fe565b916101fe565b146112d457611292600161128d60048490610372565b61118a565b6112bc7f3a7c4b0c14ef82ca69a9fb77fc68c7312eab9e6d8977a39c05ab92656223eedf91610366565b906112c5610192565b806112cf81610559565b0390a2565b5f632080cc0360e01b8152806112ec60048201610559565b0390fd5b6112f990611249565b565b61130c90611307611cf3565b61130e565b565b8061132961132361131e5f610eab565b6101fe565b916101fe565b146113b5578061134c611346611341600180016106c8565b6101fe565b916101fe565b146113995761135e8160018001610ed5565b6113947f43ab431641dd45dd0661cad4b820e826d7c526af92e3121e1242d721f82ab3ad9161138b610192565b91829182610217565b0390a1565b5f631cea5a8b60e11b8152806113b160048201610559565b0390fd5b5f632080cc0360e01b8152806113cd60048201610559565b0390fd5b6113da906112fb565b565b6113ed906113e8611cf3565b611433565b565b60101b90565b9061140962010000600160b01b03916113ef565b9181191691161790565b9061142861142361142f92610366565b610ed2565b82546113f5565b9055565b8061144e6114486114435f610eab565b6101fe565b916101fe565b146114d8578061147061146a6114655f8001610e40565b6101fe565b916101fe565b146114bc57611481815f8001611413565b6114b77f7a7b5a0a132f9e0581eb8527f66eae9ee89c2a3e79d4ac7e41a1f1f4d48a7fc2916114ae610192565b91829182610217565b0390a1565b5f631cea5a8b60e11b8152806114d460048201610559565b0390fd5b5f632080cc0360e01b8152806114f060048201610559565b0390fd5b6114fd906113dc565b565b6115109061150b611cf3565b611512565b565b8061152d6115276115225f610eab565b6101fe565b916101fe565b1461153d5761153b90611d41565b565b6115606115495f610eab565b5f918291631e4fbdf760e01b835260048301610217565b0390fd5b61156d906114ff565b565b5f90565b61158a61158f9161158261156f565b506004610372565b611158565b90565b60401c90565b6115a46115a991611592565b610388565b90565b6115b69054611598565b90565b67ffffffffffffffff1690565b6115d26115d7916106af565b6115b9565b90565b6115e490546115c6565b90565b67ffffffffffffffff1690565b61160861160361160d92610e8c565b61026b565b6115e7565b90565b90565b61162761162261162c92611610565b61026b565b6115e7565b90565b6116389061035a565b90565b90565b61165261164d61165792610e8c565b61026b565b61163b565b90565b9061166d67ffffffffffffffff91610c27565b9181191691161790565b61168b611686611690926115e7565b61026b565b6115e7565b90565b90565b906116ab6116a66116b292611677565b611693565b825461165a565b9055565b60401b90565b906116d068ff0000000000000000916116b6565b9181191691161790565b906116ef6116ea6116f69261117b565b611187565b82546116bc565b9055565b61170390611613565b9052565b919061171a905f602085019401906116fa565b565b909192611727611dd1565b9361173c6117365f87016115ac565b156103cd565b936117485f87016115da565b8061175b6117555f6115f4565b916115e7565b1480611875575b906117766117706001611613565b916115e7565b148061184d575b6117889091156103cd565b908161183c575b50611820576117b8936117ad6117a56001611613565b5f8901611696565b8561180e575b611949565b6117c0575b50565b6117cd905f8091016116da565b60016118057fc7f505b2f371ae2175ee4913f4499e1f2633a7b5936321eed1cdaeb6115181d2916117fc610192565b91829182611707565b0390a15f6117bd565b61181b60015f89016116da565b6117b3565b5f63f92ee8a960e01b81528061183860048201610559565b0390fd5b6118479150156103cd565b5f61178f565b5061178861185a3061162f565b3b61186d6118675f61163e565b9161163b565b14905061177d565b5085611762565b6118866040610478565b90565b90611893906101fe565b9052565b6118a190516101fe565b90565b906118cf602060016118d5946118c75f82016118c15f8801611897565b90610ed5565b019201611897565b90610ed5565b565b906118e1916118a4565b565b6118ed6040610478565b90565b906118fa90610264565b9052565b6119089051610264565b90565b9061193560205f61193b9461192d8282016119278488016118fe565b90610d04565b019201611897565b90611413565b565b906119479161190b565b565b929161195433611dfa565b61195c611e0f565b8161197761197161196c5f610eab565b6101fe565b916101fe565b148015611a33575b8015611a11575b6119f5576119bd6119ec926119b66119f396916119ad6119a461187c565b935f8501611889565b60208301611889565b60016118d7565b6119e66119c861028a565b916119dd6119d46118e3565b935f85016118f0565b60208301611889565b5f61193d565b6003610ed5565b565b5f632080cc0360e01b815280611a0d60048201610559565b0390fd5b5082611a2d611a27611a225f610eab565b6101fe565b916101fe565b14611986565b5080611a4f611a49611a445f610eab565b6101fe565b916101fe565b1461197f565b90611a6193929161171c565b565b611a6c9061035a565b90565b611a7830611a63565b611aaa611aa47f00000000000000000000000000000000000000000000000000000000000000006101fe565b916101fe565b148015611ad4575b611ab857565b5f63703e46dd60e11b815280611ad060048201610559565b0390fd5b50611add611e19565b611b0f611b097f00000000000000000000000000000000000000000000000000000000000000006101fe565b916101fe565b1415611ab2565b50611b1f611cf3565b565b611b2a90611b16565b565b611b359061033e565b90565b611b4190611b2c565b90565b611b4d9061035a565b90565b60e01b90565b611b5f81610588565b03611b6657565b5f80fd5b90505190611b7782611b56565b565b90602082820312611b9257611b8f915f01611b6a565b90565b61019c565b9190611bc56020611baf611baa86611b38565b611b44565b6352d1902d90611bbd610192565b938492611b50565b82528180611bd560048201610559565b03915afa80915f92611c65575b50155f14611c16575050906001611bf757505b565b611c12905f918291634c9c8ce360e01b835260048301610217565b0390fd5b9283611c31611c2b611c26610c48565b610588565b91610588565b03611c4657611c41929350611e43565b611bf5565b611c61845f918291632a87526960e21b835260048301610598565b0390fd5b611c8791925060203d8111611c8e575b611c7f818361044f565b810190611b79565b905f611be2565b503d611c75565b611c9e30611a63565b611cd0611cca7f00000000000000000000000000000000000000000000000000000000000000006101fe565b916101fe565b03611cd757565b5f63703e46dd60e11b815280611cef60048201610559565b0390fd5b611cfb6110e5565b611d14611d0e611d09611ecc565b6101fe565b916101fe565b03611d1b57565b611d3d611d26611ecc565b5f91829163118cdaa760e01b835260048301610217565b0390fd5b611d49611dad565b611d61611d575f83016106c8565b915f849101610ed5565b90611d95611d8f7f8be0079c531659141344cd1fd0a4f28419497f9722a3daafe3b4186f6b6457e093610366565b91610366565b91611d9e610192565b80611da881610559565b0390a3565b7f9016d09d72d40fdae2fd8ceac6b6234c7706214fd39c1cd1e609a0528c19930090565b611dd9611f24565b90565b611ded90611de8611f38565b611def565b565b611df890611fd0565b565b611e0390611ddc565b565b611e0d611f38565b565b611e17611e05565b565b611e21610e22565b50611e3c5f611e36611e31610c48565b611fdb565b016106c8565b90565b5190565b90611e4d82611fde565b81611e787fbc7cd75a20ee27fd9adebab32041f755214dbc6bffa90cc0225b39da2e5c2d3b91610366565b90611e81610192565b80611e8b81610559565b0390a2611e9781611e3f565b611ea9611ea35f61163e565b9161163b565b115f14611ebd57611eb9916120ae565b505b565b5050611ec7612033565b611ebb565b611ed4610e22565b503390565b90565b611ef0611eeb611ef592611ed9565b610c27565b610588565b90565b611f217ff0c57e16840df040f15088dc2f81fe391c3923bec73e23a9662efc9c229c6a00611edc565b90565b611f2c610c0c565b50611f35611ef8565b90565b611f49611f436120dd565b156103cd565b611f4f57565b5f631afcd79f60e31b815280611f6760048201610559565b0390fd5b611f7c90611f77611f38565b611f7e565b565b80611f99611f93611f8e5f610eab565b6101fe565b916101fe565b14611fa957611fa790611d41565b565b611fcc611fb55f610eab565b5f918291631e4fbdf760e01b835260048301610217565b0390fd5b611fd990611f6b565b565b90565b803b611ff2611fec5f61163e565b9161163b565b1461201457612012905f61200c612007610c48565b611fdb565b01610ed5565b565b61202f905f918291634c9c8ce360e01b835260048301610217565b0390fd5b346120466120405f61163e565b9161163b565b1161204d57565b5f63b398979f60e01b81528061206560048201610559565b0390fd5b606090565b9061208061207b8361048d565b610478565b918252565b3d5f146120a0576120953d61206e565b903d5f602084013e5b565b6120a8612069565b9061209e565b5f806120da936120bc612069565b508390602081019051915af4906120d1612085565b909190916120fb565b90565b6120e561156f565b506120f85f6120f2611dd1565b016115ac565b90565b9061210f90612108612069565b50156103cd565b5f1461211b575061217f565b61212482611e3f565b6121366121305f61163e565b9161163b565b1480612164575b612145575090565b612160905f918291639996b31560e01b835260048301610217565b0390fd5b50803b6121796121735f61163e565b9161163b565b1461213d565b61218881611e3f565b61219a6121945f61163e565b9161163b565b115f146121a957805190602001fd5b5f63d6bda27560e01b8152806121c160048201610559565b0390fdfea2646970667358221220c7b3340721c6efd0f788515facfa1df9ee78bd1b49d58eb8bc4577adb2a4f18e64736f6c634300081a0033",
    "linkReferences": {}
  },
  "methodIdentifiers": {
    "DEFAULT_FEE_BPS()": "33d8262c",
    "MAX_FEE_BPS()": "d55be8c6",
    "UPGRADE_INTERFACE_VERSION()": "ad3cb1cc",
    "addSupportedNftContract(address)": "bf9879dd",
    "contracts()": "6c0f79b6",
    "getContractAddresses()": "953874d2",
    "getFeeConfig()": "5fbbc0d2",
    "getVerificationServer()": "81b78a00",
    "initialize(address,address,address,address)": "f8c8765e",
    "isSupportedNftContract(address)": "f398d559",
    "owner()": "8da5cb5b",
    "proxiableUUID()": "52d1902d",
    "removeSupportedNftContract(address)": "9c6870de",
    "renounceOwnership()": "715018a6",
    "setEscrow(address)": "c10c3546",
    "setFeeRecipient(address)": "e74b981b",
    "setMarketplace(address)": "73ad6c2d",
    "setPlatformFee(uint16)": "5cbc742c",
    "setVerificationServer(address)": "6fd17189",
    "supportedNftContracts(address)": "347eaf26",
    "transferOwnership(address)": "f2fde38b",
    "upgradeToAndCall(address,bytes)": "4f1ef286",
    "verificationServer()": "08d6eff6"
  },
  "id": 63
}